:1000000061C000000C945B310C94823183C000000D
:1000100081C000007FC000007DC000007BC00000E8
:1000200079C0000077C0000075C0000073C00000F8
:1000300071C000000C94A02C6DC000006BC00000CB
:100040000C94A93167C000000C94BB340C94ED34BF
:1000500061C000005FC000005DC000005BC0000028
:1000600059C0000057C00000000000080002010055
:100070000003040700000000000000000102040863
:100080001020408001020408102001020408102002
:10009000040404040404040402020202020203032E
:1000A00003030303000000002300260029000000D2
:1000B0000000250028002B0000000000240027007D
:1000C0002A00123511241FBECFEFD8E0DEBFCDBF0E
:1000D00012E0A0E0B1E0E0E2FCE602C005900D9283
:1000E000A035B107D9F727E0A0E5B2E001C01D9225
:1000F000A83CB207E1F710E0C2E6D0E004C02197C7
:10010000FE010E94A335C136D107C9F70E94882D90
:100110000C940E3675CFCF93DF93882349F0EB0113
:1001200081500E94893299838883DF91CF9108950D
:10013000FB0111821082F9CF0F931F938B019C0159
:1001400083E036952795179507958A95D1F7075A35
:100150001D4F462F477021E030E0F90102C0EE0F3D
:10016000FF1F4A95E2F7AF01F80120812423CB015C
:100170000196211102C090E080E01F910F91089537
:100180000F931F938B019C0183E03695279517955C
:1001900007958A95D1F7677081E090E001C0880FDC
:1001A0006A95EAF7F801E75AFD4F2081452B31F4B3
:1001B0008095822380831F910F910895822BFACF1F
:1001C000CF92DF92EF92FF92CF93DF936B017C018E
:1001D00060E08EE0C816D104E104F10490F48EE0F2
:1001E0008C0D0E942833E6012196AE01C701B601AD
:1001F000C7DFCE01DF91CF91FF90EF90DF90CF90DE
:1002000008958C2DEECF882341F08150682F70E047
:1002100090E080E050E040E0B3CF0895FC01A7817A
:10022000B0858C9191858923A481B5819C91408171
:100230005181628173812681922359F081110BC013
:100240004F5F5F4F6F4F7F4F408351836283738354
:1002500008958111F5CF4150510961097109F4CF19
:1002600083E692E0DBCF8EE692E0D8CF89E792E09A
:10027000D5CF84E892E0D2CFFC01A481B5818C91E6
:1002800096818923A781B0859C91408151816281AB
:1002900073812185922359F0882359F04F5F5F4F76
:1002A0006F4F7F4F40835183628373830895882308
:1002B000A9F34150510961097109F4CF83E692E035
:1002C000DBCF8EE692E0D8CF89E792E0D5CF84E805
:1002D00092E0D2CF0F931F93CF93DF93082F162F67
:1002E000EA01A09162028BE0A89FD0011124AD59D0
:1002F000BD4F1D921D921D921C92139781E01A967C
:100300008C931A97802F90E0FC01E458FF4FE49102
:100310001696EC931697FC01E057FF4FE491F0E03E
:10032000EE0FFF1FEC55FF4F8591949115969C930E
:100330008E931497862F90E0FC01E458FF4FE491D0
:100340001996EC931997FC01E057FF4FE491F0E008
:10035000EE0FFF1FEC55FF4F8591949118969C93DB
:100360008E93179760E0802F0E94283360E0812FE2
:100370000E94283380916202813081F1A0F08230A6
:1003800009F445C0833009F45BC08091620291E0BA
:10039000980F90936202888390E080E0DF91CF9184
:1003A0001F910F91089580E0023021F08FEF03300C
:1003B00009F481E041E050E060E371E00E943B31EC
:1003C00080E0123021F08FEF133009F481E041E03A
:1003D00050E06EE571E00E943B31D7CF80E0023003
:1003E00021F08FEF033009F481E041E050E063E356
:1003F00071E00E943B3180E0123021F08FEF13302A
:1004000009F481E041E050E061E671E0E4CF80E092
:10041000023021F08FEF033009F481E041E050E039
:1004200066E371E00E943B3180E0123021F08FEFF3
:10043000133009F481E041E050E064E671E0CBCF95
:1004400080E0023021F08FEF033009F481E041E0D9
:1004500050E069E371E00E943B3180E0123021F00E
:100460008FEF133009F481E041E050E067E671E07E
:10047000B2CF9BE0899FF0011124ED59FD4F80819F
:100480009181A281B381FB0180839183A283B38395
:1004900090E080E008959BE0899FF0011124ED59E0
:1004A000FD4F108211821282138290E080E0089545
:1004B00090E080E00895611102C00C94283361300F
:1004C000E1F362E0FACF662319F061E00C94643343
:1004D00060E0FCCFCF92DF92EF92FF92CF93882320
:1004E00051F16A017B01CFEFC80F20E030E0A90194
:1004F000CB01B6010E94912E87FF11C0C701B60142
:1005000090580E94022F9B01AC016C2F70E090E08C
:1005100080E0CF91FF90EF90DF90CF90B2C0C70105
:10052000B6010E94FD2E8C2FCF91FF90EF90DF90AF
:10053000CF900C94A432CF91FF90EF90DF90CF90AA
:1005400008950F931F938B019C0183E036952795A7
:10055000179507958A95D1F7005B1D4F462F477079
:1005600021E030E0F90102C0EE0FFF1F4A95E2F7EB
:10057000AF01F80120812423CB010196211102C093
:1005800090E080E01F910F9108950F931F938B01CE
:100590009C0183E036952795179507958A95D1F7A5
:1005A000677081E090E001C0880F6A95EAF7F80172
:1005B000E05BFD4F2081452B31F4809582238083C1
:1005C0001F910F910895822BFACF2F923F924F9255
:1005D0005F926F927F928F929F92AF92BF92CF92D3
:1005E000DF92EF92FF920F931F93CF93DF93D62E5C
:1005F000C72E782E692E49015A01280161E08D2D00
:100600000E942833CD2DDC2D8E010F5F1F4FA801D6
:100610006D2D7C2D872D962DB8DF20E030E0A901CF
:10062000C201B7010E94D330181664F4C201B701A9
:100630000E94022F2B01C501B4010E94022FA201CA
:10064000CE0123D0C801DF91CF911F910F91FF9070
:10065000EF90DF90CF90BF90AF909F908F907F9062
:100660006F905F904F903F902F900895882341F0B6
:100670008150682F70E090E080E050E040E085CF4E
:100680000895862FB9010C94A4329C01FC01E8590D
:10069000FF4FE491E33061F140F4E13011F1E230D9
:1006A00021F160E0822F0C946433E730C1F1E8302F
:1006B00009F441C0E430A9F7809180008C7F82600A
:1006C0008093800090918100907E9061692B60936F
:1006D0008100509387004093860080918000806263
:1006E0001BC084B5806884BDDCCF84B58062FBCF3D
:1006F000809180008C7F8260809380009091810047
:10070000907E9061692B60938100509387004093A5
:10071000860080918000806880938000C2CF8091A5
:10072000B00080688093B0008091B100887F682B12
:100730006093B100B6CF8091B0008062F3CF90E0BB
:1007400080E008950F931F93009709F489C0611505
:10075000710509F485C00091890110918A012091E9
:100760008B0130918C010E3F1F4F2F4F3F4F09F0EF
:1007700068C04FEF5FEFBA014093890150938A013F
:1007800060938B0170938C014091890150918A0193
:1007900060918B0170918C01DC011296ED91FC91BE
:1007A00080819181A281B3818093CE039093CF0306
:1007B000A093D003B093D10384819581A681B781A2
:1007C0008093CA039093CB03A093CC03B093CD0343
:1007D00080859185A285B3858093C6039093C703D6
:1007E000A093C803B093C90384859585A685B78572
:1007F0008093C2039093C303A093C403B093C50333
:100800001092BE031092BF031092C0031092C10356
:100810000E949F1084EC90E19093900280938F024D
:1008200090939202809391020E948E0F009731F470
:1008300021E030E03093D3032093D2031F910F9136
:1008400008950091890110918A0120918B013091C6
:100850008C01DB010D931D932D933C93139794CF43
:100860008FEF9FEFEBCF8F929F92AF92BF92CF927D
:10087000DF92EF92FF921F93CF93DF934B015C01C6
:100880001091D50382E090E09093D3038093D2033C
:1008900081149104A104B10441F48091D503811124
:1008A00004C08091D403C1E08111C0E0C12CD12CDF
:1008B00076018091D503811106C08091D403811106
:1008C00002C0CC23D9F083E090E09093D3038093CF
:1008D000D203CC2381F1CCE9DFEF111102C00E94D9
:1008E0002914CE01DF91CF911F91FF90EF90DF90FF
:1008F000CF90BF90AF909F908F9008956AE070E086
:1009000080E090E00E94183280E1C80E87E2D81E95
:10091000E11CF11C8FEF88169806A806B80631F086
:10092000C1E08C149D04AE04BF0408F0C0E080E078
:100930000E94C20FBECFD0E0C0E0CFCFCF92DF92F7
:10094000EF92FF920F931F93CF93DF938F3F910509
:1009500011F008F051C02091D2033091D30323301D
:10096000310539F02091D2033091D3032130310584
:1009700031F424E030E03093D3032093D2036A01B2
:100980007B01EC0182309105A8F011E0AE01C701B6
:10099000B6010E948D0FAB01BC01CE011123F9F00D
:1009A000DF91CF911F910F91FF90EF90DF90CF904B
:1009B0000C9452168C01000F111F01571D4FD801C6
:1009C0008D919C91892B09F30E945C160297E9F6A0
:1009D000D801ED91FC91CE010995182FD7CF0E9437
:1009E000741690E080E0DF91CF911F910F91FF90FE
:1009F000EF90DF90CF9008958FEF9FEFF4CF80E0DE
:100A00000C94C20FCF93DF9386E090E09093D303D2
:100A10008093D2030E941B10EC01EFE8F2E084E027
:100A2000DF011D928A95E9F70E94C1131092D3034A
:100A30001092D203CE01DF91CF9108958091D4031B
:100A400008958091BD0308956093890170938A0190
:100A500080938B0190938C0190E080E00895CF9279
:100A6000DF92EF92FF926B017C019F7720E030E0F4
:100A700040E859E50E94912E87FF2BC020E030E02E
:100A800040E05FE3C701B6010E94D33087FD0EC08E
:100A900020E030E040E05FE3C701B6010E941A2E7B
:100AA000FF90EF90DF90CF900C94AD2F20E030E0DE
:100AB00040E05FEBC701B6010E94D330181684F402
:100AC00020E030E0A901C701B6010E94D7306B01D8
:100AD0007C01C701B601FF90EF90DF90CF900895A1
:100AE00020E030E040E05FE3C701B6010E94192E2C
:100AF000FF90EF90DF90CF900C947E2EEF92FF92BC
:100B00000F931F93CF93DF93C0913D03D0913E038A
:100B100080E5E82E87E0F82EF701208131814281BF
:100B2000538160915C0170915D0180915E019091B3
:100B30005F010E94D73008E217E0F801248535856F
:100B4000468557850E941A2E688379838A839B8302
:100B5000F701248135814681578160917801709138
:100B6000790180917A0190917B010E94D730F80140
:100B7000208D318D428D538D0E941A2E6C837D8382
:100B80008E839F83DF91CF911F910F91FF90EF9004
:100B900008952F923F924F925F926F927F928F9221
:100BA0009F92AF92BF92CF92DF92EF92FF920F93FC
:100BB0001F93CF93DF93CDB7DEB7A4970FB6F8940A
:100BC000DEBF0FBECDBF809194039091950300913D
:100BD0009703109198038130910509F068C06091E6
:100BE00084037091850380918603909187036F5FE2
:100BF0007F4F8F4F9F4F0E94322F2091880330915B
:100C0000890340918A0350918B030E94D7306093EF
:100C1000C1027093C2028093C3029093C402D801B0
:100C20004D905D906D907C90809098079090990782
:100C3000A3019201F40160817181828193810E94FC
:100C4000D33018160CF49EC0A0909A07B0909B0762
:100C5000D4015096CD90DD90ED90FC905397A30178
:100C60009201C701B6010E94912E811134C0F50195
:100C700060897189828993890E94FD2E61157105B1
:100C800009F484C06130710509F4FBC4C0904C01C3
:100C9000D0904D01E0904E01F0904F0160915001D5
:100CA0007091510180915201909153017FC0892B25
:100CB00009F0B5CFE091F102F091F2020190F081DC
:100CC000E02D80819181A281B381F801808391839D
:100CD000A283B383A4CFA3019201C701B6010E94EE
:100CE000912E87FD4FC00091AC071091AD077801A0
:100CF000EE0CFF1CEE0CFF1C6401CE0CDF1CA301EC
:100D00009201D6016D917D918D919C910E94D3307D
:100D1000B4E0EB0EF11C8E0C9F1C181634F5E4E0C9
:100D2000CE1AD108A3019201D60114966D917D913E
:100D30008D919C9117970E94D33018168CF0C801A2
:100D4000880F991F880F991FA80EB91ED5016D91A4
:100D50007D918D919C911093AD070093AC078CCF42
:100D600001501109DCCF0F5F1F4FF40161917191A8
:100D7000819191914F01A30192010E94912E181629
:100D800094F7DDCF60E070E0CB0176CFC0903C01FE
:100D9000D0903D01E0903E01F0903F016091400114
:100DA0007091410180914201909143012091540141
:100DB0003091550140915601509157010E94D73012
:100DC0004EDE4B015C0120E030E040E853E40E943D
:100DD000912E6FEF87FF0EC020E030E0A901C50122
:100DE000B4010E94D33060E087FD04C0C501B401A6
:100DF0000E94022F89E067DB209158013091590150
:100E000040915A0150915B01C701B6010E94D73051
:100E100026DE6B017C0120E030E040E853E40E94D4
:100E2000912E6FEF87FF0EC020E030E0A901C701CF
:100E3000B6010E94D33060E087FD04C0C701B6014F
:100E40000E94022F87E03FDB20915007309151072D
:100E50004091520750915307609160017091610178
:100E600080916201909163010E94D73020E030E0D0
:100E7000A9010E941A2E6093300770933107809366
:100E8000320790933307C0902801D0902901E09059
:100E90002A01F0902B01A7019601609178077091CB
:100EA000790780917A0790917B070E94912E882381
:100EB00041F0C0927807D0927907E0927A07F092D9
:100EC0007B076EE070E080E090E036D99093770782
:100ED0008093760743E050E0BE016D5F7F4F1BD9E2
:100EE000C0902C01D0902D01E0902E01F0902F01A8
:100EF000A701960160916C0770916D0780916E0754
:100F000090916F070E94912E882341F0C0926C0748
:100F1000D0926D07E0926E07F0926F076FE070E07D
:100F200080E090E009D990936B0780936A0743E0D3
:100F300050E0BE016F5F7F4FEED869817A8190E00B
:100F400080E02B813C81621B730B810991090E9417
:100F5000342F2091640130916501409166015091D8
:100F600067010E94D73060933407709335078093F0
:100F700036079093370780919403909195030197DA
:100F8000D9F580918801813009F08CC3C09034017B
:100F9000D0903501E0903601F090370166E070E0C6
:100FA00080E090E0CEDA8C019093930780939207D3
:100FB000209168013091690140916A0150916B0163
:100FC000C701B6010E94D7306B017C0120E030E000
:100FD0004FE753E40E94912E18160CF4AEC320E0A4
:100FE00030E0A901C701B6010E94D33087FDACC330
:100FF000B701A601C8016EDAC0903001D09031016E
:10100000E0903201F0903301A701960160915F07F3
:101010007091600780916107909162070E94912E04
:10102000882341F0C0925F07D0926007E092610789
:10103000F092620780915E07811110925E076CE466
:1010400077E08091630715DA00919403109195037E
:101050000130110581F48091A8079091A907A09112
:10106000AA07B091AB078093480790934907A093D4
:101070004A07B0934B07C0904C07D0904D07E090C3
:101080004E07F0904F078091480790914907A09133
:101090004A07B0914B07A7019601281B390B4A0B51
:1010A0005B0BCA01B9012091840130918501409107
:1010B0008601509187010E94B33519012A013B0135
:1010C00089879D83209328073092290740932A0718
:1010D00050922B0760932C0770922D0780932E0758
:1010E00090932F070130110551F58091940790914D
:1010F0009507A0919607B091970780933807909332
:101100003907A0933A07B0933B07209174013091BF
:101110007501409176015091770160917001709155
:10112000710180917201909173010E94952E6093DC
:101130003C0770933D0780933E0790933F07809054
:10114000380790903907A0903A07B0903B0791017B
:10115000A201B30189859D810E942E2F20E030E0FD
:1011600040E051E30E94D730A50194010E94192E5E
:1011700020913C0730913D0740913E0750913F0739
:101180000E94D730A50194010E941A2E4B015C01E8
:101190008092400790924107A0924207B092430785
:1011A00020915407309155074091560750915707A9
:1011B00060917C0170917D0180917E0190917F0111
:1011C0000E94D73020E030E0A9010E941A2E6093DF
:1011D0004407709345078093460790934707013073
:1011E000110509F035C2C092A807D092A907E09274
:1011F000AA07F092AB078092940790929507A0926D
:101200009607B092970740918403509185036091AF
:1012100086037091870390E080E090DB80919403D7
:1012200090919503019709F013C240918C0350915E
:101230008D0360918E0370918F0381E090E07EDBDF
:101240008091940390919503019709F001C2E09178
:10125000F102F091F2020190F081E02D8081918104
:10126000A281B3818B879C87AD87BE872091C10205
:101270003091C2024091C3025091C402298F3A8F2B
:101280004B8F5C8FE091C502F091C602C080D18087
:10129000E280F380E091F502F091F6022080318047
:1012A000E091B902F091BA0240805180628073806F
:1012B000448155815A87498756815F8787818B8B07
:1012C000E091B702F091B8021182108288E0F1013A
:1012D000D20101900D928A95E1F7E091EF02F09131
:1012E000F002718260820ADC20E030E040E05FE3DF
:1012F000C701B6010E94D7304B015C01D3012D918B
:101300003D914D915C910E94D730F2012081318155
:10131000428153810E941A2ED1016D937D938D934A
:101320009C931397F3012481358146815781C50130
:10133000B4010E94D730D20114962D913D914D9168
:101340005C9117970E941A2EF1016483758386833E
:101350009783E091F102F091F20200811181A501E1
:1013600094016B857C858D859E850E941A2ED801FF
:101370006D937D938D939C931397E091EF02F09181
:10138000F00229853A853183208303DCB7DB20E036
:1013900030E0A901C701B6010E94D7304B015C01C2
:1013A00020E030E040E45FE3C701B6010E94D7309F
:1013B0006D837E838F839887A985BA852D913D9112
:1013C0004D915C910E94D7306D8B7E8B8F8B988F67
:1013D000F3012081318142815381C501B4010E9412
:1013E000D7309B01AC016D897E898F89988D0E94D1
:1013F0001A2ED2012D913D914D915C910E941A2E91
:10140000F1016083718382839383D30114962D91BC
:101410003D914D915C911797C501B4010E94D73061
:101420004B015C01E985FA8524813581468157812C
:101430006D817E818F8198850E94D7309B01AC01A0
:10144000C501B4010E941A2ED20114962D913D912E
:101450004D915C9117970E941A2EF1016483758358
:1014600086839783E091F102F091F202008111816D
:101470002D813E814F8158856B857C858D859E852C
:101480000E941A2ED8016D937D938D939C93139790
:10149000E091EF02F091F002BF85B0832B892183A8
:1014A00078DB2CDB29E33EE843E65EE3C701B601C7
:1014B0000E94D7306D8B7E8B8F8B988F2BEA3AEA08
:1014C0004AEA5EE3C701B6010E94D7306D8F7E8F76
:1014D0008F8F98A329E33EE843EE5EE3C701B60190
:1014E0000E94D73069A37AA38BA39CA382017C8638
:1014F0006B863F853D834B894E83C20108969C8B4A
:101500008B8BD8012D913D914D915D918D012F8750
:10151000388B498B5A8BEB85FC8561917191819158
:101520009191FC87EB87A985BA854D905D906D9070
:101530007D90BA87A987ED81FE81C190D190E1901D
:10154000F190FE83ED832D893E894F89588D0E944D
:10155000D7304B015C012D8D3E8D4F8D58A1C301BD
:10156000B2010E94D7309B01AC01C501B4010E94B9
:101570001A2E4B015C0129A13AA14BA15CA1C70124
:10158000B6010E94D7309B01AC01C501B4010E9495
:101590001A2E2F85388949895A890E941A2ED1011D
:1015A0006D937D938D939D931D01EB89FC890E179F
:1015B0001F0709F0A6CFE091F102F091F20201902D
:1015C000F081E02D298D3A8D4B8D5C8D2083318308
:1015D00042835383E091B702F091B80281E090E03A
:1015E000918380838091840390918503A0918603E9
:1015F000B09187030196A11DB11D80938403909340
:101600008503A0938603B09387038091C1029091D4
:10161000C202A091C302B091C402E0919703F0917D
:10162000980380839183A283B38380918C039091EC
:101630008D03A0918E03B0918F030196A11DB11D62
:1016400080938C0390938D03A0938E03B0938F03AC
:10165000A4960FB6F894DEBF0FBECDBFDF91CF9139
:101660001F910F91FF90EF90DF90CF90BF90AF90C0
:101670009F908F907F906F905F904F903F902F90B2
:101680000895C0904401D0904501E0904601F0904B
:101690004701609148017091490180914A01909100
:1016A0004B0184CBC0903801D0903901E0903A01D1
:1016B000F0903B0120E030E0A901C701B6010E9493
:1016C000912E87FF2DC0C701B6010E947E2E6B01AF
:1016D0007C0120D3811129C0C701B601D6D2811166
:1016E00024C020E030E040E853E4C701B6010E9486
:1016F000C72F6B017C0120E030E0A9010E94912EF0
:1017000087FF16C0C701B60190580E94022F61954D
:1017100070E090E080E00E94342F6B017C013ECCB1
:10172000C701B6010E94AD2FD2CFC12CD12C7601BA
:10173000C701B6010E94022FEBCFC12CD12C8FE73D
:10174000E82E83E4F82E54CCC12CD12C760150CC59
:101750004F925F926F927F92AF92BF92DF92EF9221
:10176000FF920F931F93CF93DF9384E090E056D2C4
:10177000E1EBF2E084E993E097838683C7E9D3E065
:10178000D093F202C093F10268E873E0758B648B2A
:101790002DE333E037AF26AF47E353E05093F60233
:1017A0004093F5022CE733E03093F4022093F302E8
:1017B0002EE733E03093F8022093F70229E333E079
:1017C0003093FA022093F9022BE333E03093FC02CA
:1017D0002093FB02F0931C03E0931B03F583E48347
:1017E00021E030E0DC012D933C9384E693E024E497
:1017F00033E0DC012D933C932CE433E0309367031A
:101800002093660324E533E0309369032093680353
:101810002CE533E030936B0320936A0320E537E037
:10182000DA012D933C93918780871092320387EBE6
:1018300091E09387828749E953E059834883412C9B
:10184000512C80E2682E81E4782E409290035092D1
:10185000910360929203709293039AE0492E97ED60
:10186000592E93E2692E9CE3792EDB014D925D9215
:101870006D927C921397CCE6D3E087EC90E8AAEACD
:10188000B2E888839983AA83BB838BEE9EE0A1E9AB
:10189000BCED8093700390937103A0937203B09397
:1018A000730389E79AE3A7EBB0ED809374039093F9
:1018B0007503A0937603B093770382EC93E8A0EBD3
:1018C000BAEF8093780390937903A0937A03B0934F
:1018D0007B03A5EAB2E0B383A283E3E9F2E01196C9
:1018E000FC93EE938CEB91E09183808393838283CE
:1018F0009583848397838683918780879387828764
:101900009587848797878687918B808B82E893E081
:1019100015969C938E9314971396DC93CE931297FF
:1019200017965C934E931697C8E5D7E084E191E053
:10193000909399078093980780E091E090939B079C
:1019400080939A071092AD071092AC07F9011082AC
:1019500011821282138248E2A42E41E0B42E8091BB
:10196000800190918101A0918201B09183018093C7
:10197000A8079093A907A093AA07B093AB078091FB
:101980006C0190916D01A0916E01B0916F018CAFCF
:101990009DAFAEAFBFAF14821582168217821CA610
:1019A000412C512C320143944DA65EA66FA678AA15
:1019B00061E089E00E945B02DD24D394D9AA1CA2D5
:1019C0004DA25EA26FA278A661E087E00E945B0252
:1019D000D9A6188EF50180819181A281B38188A357
:1019E00099A3AAA3BBA3498E5A8E6B8E7C8E6EE000
:1019F00070E080E090E00E94E0009F8F8E8FDD8E8F
:101A00001C86F50184819581A681B7818C8B9D8B85
:101A1000AE8BBF8B4D865E866F86788A6FE070E0F6
:101A200080E090E00E94E0009B8B8A8BD98A1CAA00
:101A30004DAA5EAA6FAA78AEE12CF12C8701A8010D
:101A4000970166E070E080E090E00E94E5029BAFC5
:101A50008AAFD9AE1B861882F50180859185A28553
:101A6000B3858F839887A987BA8749825A826B8208
:101A70007C8243E657E062E083E00E946A01DD82F7
:101A80001E828B85DF91CF911F910F91FF90EF9078
:101A9000DF90BF90AF907F906F905F904F900C94CD
:101AA0004B0280918407811103C081E080938407F9
:101AB00080917C07811103C081E080937C07809135
:101AC000700781111FC081E08093700780917107BA
:101AD00090917207A0917307B09174070197A105C7
:101AE000B10581F480917507882361F06EE070E0A4
:101AF00080E090E00E949C009093770780937607A7
:101B00000E9403018091640781111FC081E08093CE
:101B100064078091650790916607A0916707B0916F
:101B200068070197A105B10581F4809169078823B1
:101B300061F06FE070E080E090E00E949C00909384
:101B40006B0780936A070E94030180918C078111C3
:101B50002EC081E080938C0780918D0790918E0735
:101B6000A0918F07B09190070197A105B105F9F4F5
:101B7000809191078823D9F066E070E080E090E0E2
:101B80000E94A102909393078093920740E050E057
:101B9000BA010E946A0266E070E080E090E00E9474
:101BA000A10290939307809392070E94360380913D
:101BB0005807811114C081E080935807809159071C
:101BC00090915A07A0915B07B0915C070197A1051E
:101BD000B10529F480915D0781110C945802089594
:101BE00060E070E080E89FE7089560E070E080E8E2
:101BF0009FE7089560E070E080E89FEF089560E05F
:101C000070E080E89FEF089560E070E080EC9FEF67
:101C1000089560E070E080EC9FEF0895F5DF609339
:101C2000BA077093BB078093BC079093BD07F1DFA1
:101C30006093AE077093AF078093B0079093B1079E
:101C4000CFDF6093B6077093B7078093B807909380
:101C5000B907CBDF6093B2077093B3078093B407E3
:101C60009093B507C7DF6093BE077093BF0780935B
:101C7000C0079093C107C3DF6093C2077093C30787
:101C80008093C4079093C5070895CF92DF92EF9297
:101C9000FF92CF936B017C01AC019B016091B60771
:101CA0007091B7078091B8079091B9070E94912E63
:101CB000C1E0882371F0A70196016091BE07709181
:101CC000BF078091C0079091C1070E94912E81119A
:101CD000C0E08C2FCF91FF90EF90DF90CF900895D0
:101CE0000F931F938B019C010027112720783F77CA
:101CF0000115110520483F4749F4AB01BC016F773E
:101D0000772781E0452B462B472B09F480E01F9174
:101D10000F910895E5CF4F925F926F927F928F92CD
:101D20009F92AF92BF92CF92DF92EF92FF920F936A
:101D30001F93F8944090AD035090AE036090AF03B2
:101D40007090B003C090A103D090A203E090A303D1
:101D5000F090A4034130510509F0A4C09B01AC01EF
:101D6000241935094609570929013A010091A903A7
:101D70001091AA032091AB033091AC0348015901A3
:101D8000840C951CA61CB71C80169106A206B306EF
:101D9000A0F40091A5031091A6032091A703309110
:101DA000A8030F5F1F4F2F4F3F4F0093A5031093C2
:101DB000A6032093A7033093A8038092A9039092CF
:101DC000AA03A092AB03B092AC030091A5031091BB
:101DD000A6032091A7033091A8038092B1039092AB
:101DE000B203A092B303B092B4030093B50310936F
:101DF000B6032093B7033093B8036093AD03709399
:101E0000AE038093AF039093B003A0E1B7E2A301C8
:101E100092010E94A9356C0D7D1D8E1D9F1D609342
:101E2000A1037093A2038093A3039093A403009152
:101E3000890110918A0120918B0130918C010F3F13
:101E40001F4F2F4F3F4FF1F00091890110918A01F0
:101E500020918B0130918C010E3F1F4F2F4F3F4F30
:101E600089F0C0908901D0908A01E0908B01F090B8
:101E70008C0121E08C149D04AE04BF0408F420E022
:101E80002093BD0378941F910F91FF90EF90DF9006
:101E9000CF90BF90AF909F908F907F906F905F900A
:101EA0004F9008954B015C0184189508A608B70867
:101EB000A3019201261B370B480B590B64157505BE
:101EC00086059705D0F082169306A406B50640F461
:101ED00020E030E0A90181149104A104B10491F43F
:101EE000A0E1B7E20E94A935A7019601261B370B96
:101EF000480B590BCA01B901C5CF82169306A40637
:101F0000B50670F7A0E1B7E2A50194010E94A935DA
:101F10006C0D7D1D8E1D9F1DB5CFFDCECF93DF9324
:101F200000D000D0CDB7DEB71C821B821A82198286
:101F30001092B9031092BA031092BB031092BC0323
:101F4000BE016F5F7F4FCE0103960E94842C698192
:101F50007A818B819C810E947425009761F4BE0177
:101F60006F5F7F4FCE0103960E94902C69817A812A
:101F70008B819C812DD50F900F900F900F90DF914A
:101F8000CF910895FF920F931F93CF93DF93082F64
:101F900060E070E0CB010E941832FF24F3940E94AD
:101FA0005F24EC01892B89F010E0CE3F8FEFD8073A
:101FB00069F0002361F160E070E0CB010E9418320B
:101FC00081E090E0892B59F322C011E024D5EC0187
:101FD000892B21F0CE3F8FEFD80759F711111EC082
:101FE00011E0229609F410E00E941024EC01892BE4
:101FF00021F0CE3F8FEFD807E1F6111111C011E0AB
:10200000CE3F8FEFD80709F410E001110BC0CE01CD
:10201000DF91CF911F910F91FF90089511E0E4CFD0
:1020200011E0F3CF60E070E0CB010E9418321F2571
:10203000812F90E0C7CFCF93DF938091BD0388239A
:1020400021F060E070E0CB014DD636D6D0E0C0E0A4
:10205000892B71F06AE070E080E090E00E94183215
:1020600081E090DF29D62196C03D27E0D20781F795
:1020700028D60E94C8251092D5031092D40310923E
:10208000CE031092CF031092D0031092D10310927E
:10209000CA031092CB031092CC031092CD0310927E
:1020A000C6031092C7031092C8031092C90310927E
:1020B000C2031092C3031092C4031092C50310927E
:1020C000BE031092BF031092C0031092C1034EEFE3
:1020D0005FEF6FEF7FEF4093890150938A01609328
:1020E0008B0170938C011092BD03E1EBF3E028E0CB
:1020F000DF011D922A95E9F71092AD031092AE030D
:102100001092AF031092B0031092A9031092AA0389
:102110001092AB031092AC031092A5031092A60389
:102120001092A7031092A8031092A1031092A20389
:102130001092A3031092A403DF91CF9108951092FF
:10214000E1031092E2031092E3031092E403109271
:10215000E0038091E9039091EA039093DF03809379
:10216000DE031092DD031092DC031092D80310926C
:10217000D9031092DA031092DB031092E603109257
:10218000E50390E080E00895CF92DF92EF92FF9216
:102190000F931F93CF938C01019709F055C02091A5
:1021A000E9033091EA038091DE039091DF034091CF
:1021B000E9035091EA035093DF034093DE032817AD
:1021C000390781F01092DD031092DC031092D803DE
:1021D0001092D9031092DA031092DB031092E603F7
:1021E0001092E5038091E9039091EA03019761F56C
:1021F0008091E5039091E603892B21F480918D0174
:10220000811112C08091E5039091E6030197E1F4FA
:102210008091D8039091D903A091DA03B091DB03A8
:102220000197A105B10581F41092D8031092D9034A
:102230001092DA031092DB0310928D0182E090E09D
:102240009093E6038093E5038091E9039091EA037C
:10225000019709F01CC18091FF0390910004801741
:10226000910709F014C18091FB039091FC03A091A8
:10227000FD03B091FE03009709F409C12091FA0310
:1022800021110DC04091FB035091FC036091FD03AF
:102290007091FE03452B462B472B09F4F8C0209183
:1022A000E5033091E6032230310509F0F0C02091BA
:1022B000DC032111ECC0FC01C080D180E280F380FE
:1022C0008091E003882309F4D3C08091EC039091BE
:1022D000ED03892B09F4FEC02091EC033091ED034E
:1022E00081E02230310509F080E02091EC0330914B
:1022F000ED03C1E02130310549F02091EC0330912C
:10230000ED03C1E02230310509F0C0E0882309F473
:1023100056C02091F6033091F7034091F803509195
:10232000F903C701B6010E94D33087FD14C0209184
:10233000F6033091F7034091F8035091F90360914F
:10234000E1037091E2038091E3039091E4030E9422
:10235000912E87FD22C02091F6033091F703409122
:10236000F8035091F903C701B6010E94D330181643
:1023700034F52091F6033091F7034091F803509122
:10238000F9036091E1037091E2038091E30390917E
:10239000E4030E94912E811112C08091EE0390916E
:1023A000EF03A091F003B091F103892B8A2B8B2BC3
:1023B00019F481E08093DD0381E08093DC03CC237A
:1023C00009F456C02091F6033091F7034091F803C9
:1023D0005091F903C701B6010E94912E87FF14C0E6
:1023E0002091F6033091F7034091F8035091F903DF
:1023F0006091E1037091E2038091E3039091E40323
:102400000E94D33087FF22C02091F6033091F7035A
:102410004091F8035091F903C701B6010E94912E33
:10242000811126C02091F6033091F7034091F80303
:102430005091F9036091E1037091E2038091E3030D
:102440009091E4030E94D330181694F48091EE0327
:102450009091EF03A091F003B091F103892B8A2BA7
:102460008B2B19F481E08093DD0381E08093DC0302
:1024700081E09091DC03911180E08093E003C092B1
:10248000E103D092E203E092E303F092E40301302F
:10249000110509F067C18091E5039091E603892B4E
:1024A000D9F41092EB031092DC0380918D01882304
:1024B00079F082E090E09093E6038093E503109238
:1024C0008D012091E9033091EA0381E0232BE9F0AB
:1024D00080E01BC081E009CF10928D018091EB0359
:1024E000882349F01092DD031092E6031092E50371
:1024F0001092EB03EDCF8091E9039091EA03892BD1
:10250000E1F08091DC031092DC032091E50330912F
:10251000E6032230310509F45EC088F42115310547
:1025200009F448C02130310509F4F3C01092DD03ED
:102530001092DC031092EB0338C081E0E6CF233029
:10254000310509F4B1C02430310581F74091D80339
:102550005091D9036091DA037091DB034115510565
:102560006105710561F0415051096109710940939C
:10257000D8035093D9036093DA037093DB0340913F
:10258000D8035091D9036091DA037091DB03452B96
:10259000462B472BD9F42091E7033091E8032130F3
:1025A000310509F046C01092DD031092E603109247
:1025B000E5030CC080918D01882341F082E090E01A
:1025C0009093E6038093E50310928D011092D60359
:1025D0008091DD03CEC08823C9F38091EE039091F2
:1025E000EF03A091F003B091F103181619061A0633
:1025F0001B060CF07DC08091E9039091EA030197DE
:1026000009F076C08091EE039091EF03A091F00362
:10261000B091F1038093D8039093D903A093DA0388
:10262000B093DB0383E090E09093E6038093E503AF
:10263000CDCF4091F2035091F3036091F403709178
:10264000F503452B462B472BA9F01092DD03809113
:10265000F2039091F303A091F403B091F5038093FA
:10266000D8039093D903A093DA03B093DB0381E0FE
:1026700090E0DACF882399F080918E0190918F01BC
:10268000A0919001B09191018093D8039093D903C8
:10269000A093DA03B093DB0384E090E0C5CF1092FF
:1026A000DD0382E090E0C0CF8091D8039091D90300
:1026B000A091DA03B091DB030097A105B10559F0B1
:1026C0000197A109B1098093D8039093D903A093EE
:1026D000DA03B093DB038091D8039091D903A091E2
:1026E000DA03B091DB03892B8A2B8B2B09F06ECF99
:1026F00080918E0190918F01A0919001B0919101F4
:10270000892B8A2B8B2B09F44ECF81E08093DD033C
:10271000B3CF4091D8035091D9036091DA037091FF
:10272000DB03411551056105710561F04150510907
:10273000610971094093D8035093D9036093DA0378
:102740007093DB034091D8035091D9036091DA0371
:102750007091DB03452B462B472B09F037CF8111B6
:10276000C7CF9FCF8091D603882309F431CF8091C2
:10277000D703CF911F910F91FF90EF90DF90CF90F3
:1027800008951092E1031092E2031092E303109275
:10279000E4031092E0031092E6031092E503109216
:1027A000DF031092DE03109200041092FF031092D8
:1027B000DD031092DC031092D8031092D90310921B
:1027C000DA031092DB031092D7031092D603109213
:1027D000FB031092FC031092FD031092FE03109273
:1027E000FA031092F6031092F7031092F803109276
:1027F000F90388EE93E0A0E0B0E080938E0190931F
:102800008F01A0939001B09391011092F203109266
:10281000F3031092F4031092F5031092EE0310925A
:10282000EF031092F0031092F1031092ED03109257
:10283000EC0381E080938D011092EB031092EA0388
:102840001092E9031092E8031092E70390E080E011
:1028500008958091E9039091EA03892B19F58091FD
:102860008D01882351F08091EB03811106C081E036
:102870008093D7038093D60308952091EB03309182
:102880008D0181E090E0332311F090E080E030E0B2
:1028900082239323892B21F01092D70381E0EACF82
:1028A0001092D603089582E090E0FA01918380832C
:1028B0008FEF9FEF0895CF93DF93EA01009711F018
:1028C0000E94E8261982188290E080E0DF91CF9183
:1028D0000895DB01009719F48FEF8C9308952EEF84
:1028E0002C930F968F30910508F033C0FC01E5580A
:1028F000FB4E0C94A335A714A514A314A1149F1484
:102900009B149D1499149714951492148E148A1480
:102910009014A91480E311968C93089589E2FBCF5B
:1029200082E2F9CF11961C92089583E2F4CF81E2FE
:10293000F2CF81E1F0CF87E2EECF8AE2ECCF80E107
:10294000EACF84E2E8CF88E2E6CF86E2E4CF81E313
:10295000E2CF80E2E0CF80910D0490910E040895C3
:1029600090930E0480930D04089580910C040895B3
:1029700090910C04892B80930C040895982F9095C6
:1029800080910C04892380930C04089580910B049A
:1029900008958091090490910A04089561157105C4
:1029A00059F0FB0130E020E070E060E024173507CB
:1029B00019F06115710511F0CB010895A081B18165
:1029C000A817B90709F4BF012F5F3F4F3696EECF26
:1029D00080910F0481111CC062D268D290930204CE
:1029E000809301040E94EA1E0E94FC1E909306043C
:1029F000809305040E947A230E948123909304040B
:102A00008093030481E080930F0490E080E00895B8
:102A100084EF9FEF08958F929F92AF92BF92CF92D3
:102A2000DF92EF92FF920F931F93CF93DF93CDB777
:102A3000DEB72A970FB6F894DEBF0FBECDBF1A8659
:102A4000198618861F821E821D821C821B821A8292
:102A5000198280910F0407EF1FEF882309F49CC0AF
:102A60008E010D5F1F4F9E012B5F3F4FAE01495FEF
:102A70005F4FBE01675F7F4F90E080E00E94FA24C5
:102A80008C01009721F00596029708F0DBC029859C
:102A90003A852115310509F402C1ED80FE804B8194
:102AA0005C81B701640F751F8F8198858617970722
:102AB00008F4F5C0E20EF31ED7019C91903C09F09A
:102AC0007FC04230510508F47BC011968C91409133
:102AD0000D0450910E04452B09F49CC0913F08F061
:102AE00071C02CE1290F2D3008F48BC02DE2290F85
:102AF000203108F489C0903C21F48150823008F4E0
:102B000083C088E3890F8B3008F481C099E6C92E11
:102B100094E1D92EE3E5F4E16D817E81AE014F5F52
:102B20005F4F89859A8509955C01C114D104A1F193
:102B300089809A808114910479F18B819C81881518
:102B4000990508F487C010E000E04B815C8170E0DB
:102B500060E0C7010E94073601151105E9F44981BB
:102B60005A8169857A858D819E81680F791FC5019B
:102B7000F6010995E980FA800D811E812F81388543
:102B800049855A856FEF7FEF81E090E00E9496249F
:102B90008C01892B09F056C0C8012A960FB6F8940B
:102BA000DEBF0FBECDBFDF91CF911F910F91FF9080
:102BB000EF90DF90CF90BF90AF909F908F9008954F
:102BC00080E085CF30E020E0220F331FF901EF5F76
:102BD000FB4F0190F081E02D309709F497CF892FBA
:102BE00090E00995009709F491CFDC011296ED91E0
:102BF000FC9113971496CD90DC90309709F08CCF10
:102C00001FC021E030E0E0CF22E030E0DDCF23E064
:102C100030E0DACFD12CC12CEBE5F4E19F3F09F095
:102C20007BCFE0910104F0910204309721F4C901B7
:102C300004EF1FEF0CC08FEF90E009950097A9F605
:102C400004EF1FEF89859A85009709F4A5CF0E94AC
:102C5000E826A2CF0E94C3258C0189859A850E940F
:102C6000E82670E060E0C4010E945C2598878F83AD
:102C70000E9493249E838D836F81788561157105F1
:102C800059F0C8010E9474289A87898706EF1FEFC0
:102C9000892B09F058CF59CF08EF1FEF56CF08EF17
:102CA0001FEFD0CF20910F04222319F020E00C94C5
:102CB000011F87EF9FEF089580910D0490910E04FE
:102CC00008950E9486230E94E022F5D0E1E0F4E01E
:102CD00088E0DF011D928A95E9F710920F0490E0D9
:102CE00080E008950C943D2121E040E050E0BA01DD
:102CF0000C94011F86E090E0FA019183808390E0BC
:102D000080E0089547E050E06FEB71E047CEDF923E
:102D1000EF92FF920F931F93CF93DF938A01EC0101
:102D2000C60FD71FE0901304F0901404D9800E94BE
:102D3000AB25D816190678F082E090E0F80191836F
:102D400080838EEF9FEFDF91CF911F910F91FF90C6
:102D5000EF90DF900895EF2841F482E090E0F801D1
:102D60009183808384EF9FEFEECF8981809312045B
:102D700090E00196F8019183808390E080E0E3CFBA
:102D8000CF93DF93EA010E94EE21882321F00E9475
:102D9000B8250E94EF2182E090E0998388838BEF31
:102DA0009FEFDF91CF910895CF93DF93EB0186E002
:102DB000FB0111928A95E9F78FEF8883D6DD89832D
:102DC000E5DD8A83E6DD9D838C83DF91CF910895D5
:102DD000CF93DF93EA010E94F121811109C082E0C3
:102DE00090E09983888385EF9FEFDF91CF910895DD
:102DF00090E080E0B5DD81E090E09983888390E009
:102E000080E0F3CF0F931F93CF93DF93EA018C0100
:102E1000060F171F0E94F12181110BC082E090E084
:102E20009983888385EF9FEFDF91CF911F910F9159
:102E30000895F8018181823038F082E090E0998332
:102E400088838EEF9FEFF0CF81E090E089DD88E00E
:102E500090E09983888390E080E0E6CFCF93DF9382
:102E60000097D1F4EB01FB01329686E0DF011D9261
:102E70008A95E9F78FEF888385E089831A820E941B
:102E8000AB258B830E94AA259D838C8381E08E8352
:102E90008F83DF91CF910895DF91CF911ACD82E892
:102EA00096E190931104809310040895809110048A
:102EB0009091110408951092110410921004089535
:102EC00080911304909114040895411105C0611577
:102ED00071058105910561F06093130470931404EA
:102EE00080931504909316044093170481E008958D
:102EF00080E00895FF920F931F93CF93DF938A0191
:102F0000EC01C60FD71FF9800E94AB25F8161906F1
:102F100068F082E090E0F801918380838EEF9FEF6C
:102F2000DF91CF911F910F91FF9008956C817D816A
:102F30008E819F814B81C9DF811108C082E090E0C2
:102F4000F8019183808384EF9FEFEACF898180939A
:102F5000120490E00196F8019183808390E080E074
:102F6000DFCFCF93DF93EA01FC01E60FF71F648107
:102F70007581868197814381A8DF811109C082E034
:102F800090E09983888384EF9FEFDF91CF9108953C
:102F900081E090E09983888390E080E0F6CFE3E1E0
:102FA000F4E04081518162817381480F511D611DA0
:102FB000711D40835183628373830895CF93C091C1
:102FC00012044C2F50E06091130470911404019688
:102FD0000E94FE358C2FE3DF10921204CF910895EA
:102FE000009799F480911304909114042FEFFB0142
:102FF0002083892B59F02091120430E02F5F3F4F3E
:103000002417350719F4CB01D9CF63CC0895009765
:1030100099F480911304909114042FEFFB01208305
:10302000892B59F02091120430E02F5F3F4F241775
:10303000350719F4CB01C2CF4CCC089523E1AC0184
:10304000249FC001259F900D1124E0911C04F09154
:103050001D04E80FF91F238134812250310981E0DA
:103060002230310508F080E008950F931F93CF932D
:10307000DF9300911E0410911F04D0E0C0E080E0B7
:103080000C171D0749F491E0811190E0892FDF9121
:10309000CF911F910F9108958111F5CFCE01CEDF11
:1030A0002196EECFA0911C04B0911D04109729F138
:1030B00020911E0430911F0482179307F0F453E10E
:1030C000589F9001599F300D1124A20FB31FED910D
:1030D000FC911197309789F012968C91681768F4DB
:1030E0008DE0689FE00DF11D112480819181892B75
:1030F00021F081E09281491708F080E008959C0159
:1031000043E1429FC001439F900D1124E0911C04B4
:10311000F0911D04E80FF91F8385823091F481E05E
:1031200090E06581768140919201509193016417FE
:10313000750711F490E080E0892B19F081E0232BD2
:1031400009F080E00895FC01A081B1818DE0689FC5
:10315000A00DB11D112413964D915C918585968526
:10316000489F9001499F300D589F300D1124C9018F
:103170000196611103C0478144FD04960895EF92C2
:10318000FF920F931F93CF93DF93EA01FC01E60FA9
:10319000F71F02811381E480F5804F2D6E2DC80149
:1031A00081DF81110DC082E090E0998388838EEFEA
:1031B0009FEFDF91CF911F910F91FF90EF900895B6
:1031C000C8013CDF882339F082E090E0998388834E
:1031D00088EF9FEFEECF1093990100939801E09252
:1031E0009A01F0929B0181E090E09983888390E0BE
:1031F00080E0DFCFCF92DF92EF92FF920F931F9389
:10320000CF93DF937A01EC01C60FD71FC0909801CE
:10321000D090990100919A0110919B01412F602F4C
:10322000C60140DF811110C082E090E0F701918378
:1032300080838AEF9FEFDF91CF911F910F91FF90D5
:10324000EF90DF90CF900895C601F8DE882341F01B
:1032500082E090E0F7019183808388EF9FEFEBCFCE
:103260004C815D816E817F819A8189818F3F41F0A0
:1032700082E090E0F701918380838EEF9FEFDBCFB8
:10328000E3E1EC9D9001ED9D300D1124E0911C04D3
:10329000F0911D04E20FF31F0190F081E02D2DE06D
:1032A000029FE00DF11D11240190F081E02D27E037
:1032B000129FE00DF11D1124808391838B81828305
:1032C00043835483658376831F5F10939B0181E062
:1032D00090E0F7019183808390E080E0ACCFEF92A3
:1032E000FF920F931F93CF93DF937A018C01060F08
:1032F000171FC0911C04D0911D04209781F021E07C
:1033000030E0F8018281938140911E0450911F04A6
:103310008417950710F030E020E0232B71F482E051
:1033200090E0F701918380838EEF9FEFDF91CF9143
:103330001F910F91FF90EF90089543E1489F9001F6
:10334000499F300D1124C20FD31F78DE882341F02E
:1033500082E090E0F7019183808388EF9FEFE6CFD2
:10336000F8012481358120383105C8F68781811123
:10337000D6CF4181842F90E08F7E009741F082E08C
:1033800090E0F7019183808386EF9FEFCFCF4F834B
:103390003E832D83268128871986223010F421E070
:1033A000288721E030E0F70131832083BFCF88E018
:1033B00090E0FA019183808390E080E00895FB0122
:1033C0008FEF808381E181838FEF9FEF93838283EF
:1033D00080E890E095838483168217820895FB012C
:1033E0008FEF808391E0918382839383848384E34E
:1033F000858381E090E0978386830895DF92EF9242
:10340000FF920F931F93CF93DF93EA01FC01E60F26
:10341000F71F8181813071F082E090E09983888389
:103420008FEF9FEFDF91CF911F910F91FF90EF9062
:10343000DF90089582819381D4802581E680F78092
:1034400000911C0410911D040115110539F482E04E
:1034500090E0998388838CEF9FEFE4CF40911E0426
:1034600050911F048417950738F082E090E099830B
:1034700088838EEF9FEFD6CF892B39F082E090E0E2
:103480009983888386EF9FEFCDCF8D2D8D7FB1F708
:103490002130A1F781E0D11006C091E0E916F104D6
:1034A00031F080E004C0E2E0EE16F104D0F38823AE
:1034B00029F390E080E0C2DD882339F082E090E0DB
:1034C0009983888388EF9FEFADCFF801D38681E0A1
:1034D0008487F686E586108A178681E090E09983D6
:1034E000888390E080E09ECF4CE050E069EE71E090
:1034F00055CA8F929F92BF92CF92DF92EF92FF9226
:103500000F931F93CF93DF93EA01FC01E60FF71FA0
:10351000828193810481B580E0911C04F0911D04A7
:10352000309791F482E090E0998388838CEF9FEF4D
:10353000DF91CF911F910F91FF90EF90DF90CF908F
:10354000BF909F908F90089520911E0430911F048A
:103550008217930738F082E090E0998388838EEF9A
:103560009FEFE6CF23E1289F6001299FD00C112413
:10357000EC0DFD1DE080F180E114F10499F28281EF
:10358000081748F78DE0089F80011124E00EF11E16
:10359000F70180819181892B29F6BB20E1F2F7E0C8
:1035A000BF9E40011124C4010E94AF26F701918300
:1035B0008083E0911C04F0911D04EC0DFD1D019031
:1035C000F081E02DE00FF11F80819181009739F4A7
:1035D00082E090E0998388838DEF9FEFA9CFA401CB
:1035E00070E060E00E94073680911C0490911D04F9
:1035F000C80ED91EF60180819181080F191FF801AC
:10360000B28281E090E09983888390E080E090CF5F
:10361000AF92BF92CF92DF92FF920F931F93CF93FF
:10362000DF93EA01FC01E60FF71F82819381F480AA
:1036300000911C0410911D040115110581F482E014
:1036400090E0998388838CEF9FEFDF91CF911F915A
:103650000F91FF90DF90CF90BF90AF900895209191
:103660001E0430911F048217930738F082E090E027
:10367000998388838EEF9FEFE8CF2FEF2F0D2C3F9C
:10368000A8F723E1289F6001299FD00C11240C0D7D
:103690001D1DF80180819181892B89F6FDE0FF9E37
:1036A00050011124C5010E94AF26F8019183808347
:1036B000E0911C04F0911D04EC0DFD1D80819181B1
:1036C000009739F482E090E0998388838DEF9FEF33
:1036D000BCCFA50170E060E00E940736E0911C04B9
:1036E000F0911D04EC0DFD1DF28281E090E09983C4
:1036F000888390E080E0A9CFCF92DF92EF92FF9293
:103700000F931F93CF93DF93860F971FFC010281C6
:10371000138180911C0490911D04892B81F082E01B
:1037200090E0FA01918380838CEF9FEFDF91CF913E
:103730001F910F91FF90EF90DF90CF900895C801F7
:10374000B0E0A0E00197A109B1098F3F9F4FA1050B
:10375000B10540F082E090E0FA01918380838EEF22
:103760009FEFE4CF7A0183E1809F6001819FD00CBD
:103770001124C6010E94AF26EC01009741F482E0BB
:1037800090E0F701918380838DEF9FEFCFCFA6016B
:1037900070E060E00E940736D0931D04C0931C04C3
:1037A00010931F0400931E0490E080E02FEF3FEF82
:1037B00041E061E070E08017910741F481E090E022
:1037C000F7019183808390E080E0B0CF3A8B298B22
:1037D0001B864C877E876D87188A1F8601966396A5
:1037E000EACFEF92FF921F93CF93DF93EC0110E0AB
:1037F000F12CE12C6A811617A8F070E0660F771F94
:10380000AE014F5E5F4FC7010E941427009721F061
:103810002FEF3FEF3A8B298BDF91CF911F91FF90D4
:10382000EF900895612FCE018EDC61E070E00E9480
:103830005C25E816F90608F47C011F5FDBCFF894DD
:1038400020911A0430911B0481E02115310509F003
:1038500080E0232B09F0789408952F923F924F92A5
:103860005F926F927F928F929F92AF92BF92CF9210
:10387000DF92EF92FF920F931F93CF93DF933C0160
:10388000660E771EF301828193814C01B12CA12C2D
:10389000C0911C04D0911D04209769F021E030E014
:1038A00060911E0470911F048617970710F030E096
:1038B00020E0232BD1F482E090E0FA019183808311
:1038C0008EEF9FEFDF91CF911F910F91FF90EF90BF
:1038D000DF90CF90BF90AF909F908F907F906F9030
:1038E0005F904F903F902F90089580929C0190920E
:1038F0009D01A0929E01B0929F0163E1689F90019B
:10390000699F300D1124C20FD31FF30181818330D1
:1039100040F082E090E0FA019183808386EF9FEF90
:10392000D1CF2A012B813C81232BF1F428813981CD
:103930009F8191FF2EC0232B09F46FC02091210499
:103940009A81422F490F5527551FBA0141E050E097
:103950006138710514F050E040E0452B09F45DC07A
:103960002A87920F909321048150823008F481C0FD
:1039700066DF882309F4D8C0F3018181813009F41E
:103980008DC008F47BC0823009F4C6C090E080E0AE
:10399000ADC0232B09F441C0209120049A81E22F6D
:1039A000E90FFF27FF1F41E050E0ED3FF10514F064
:1039B00050E040E0452B89F12A87920F9093200434
:1039C000D3CFA081B181A20FB31F11966C91060FC6
:1039D000111D0196295F3F4F8417950794F38D853C
:1039E0009E85089F1001099F300C189F300C1124F0
:1039F000C114D104D1F48F8184FF17C00E94AA257D
:103A0000F5E02F0E311C21E08215930508F420E02B
:103A1000A701435F5F4F21110EC082E090E0F201E9
:103A20009183808387EF9FEF4DCF0E94AA252FEFD0
:103A3000221A320AE8CF88819981E80EF91EF7012F
:103A400014830383FFEFCF1ADF0A7A018A818C1572
:103A50001D0409F00CF48CCFE881F981EE0DFF1DF7
:103A6000428150E030E020E010E000E090E080E0B3
:103A7000B3CFF12CE12CD12CC12CE8CF81E090E028
:103A80009C838B83F2DA882309F480CF81E090E075
:103A90000E94B01480E40E94BE1478CF89899A896C
:103AA000019661F083E090E09C838B8382E090E05C
:103AB0000E94B01480E40E94B81468CF8D819E816A
:103AC000209192013091930182179307D1F4609174
:103AD000960170919701AE014F5E5F4F8091940106
:103AE000909195010E9433280097E1F2789422E0AA
:103AF00030E0F20131832083892B99F08DEF9FEF25
:103B0000E1CE89288A288B2869F6029758F6CE01DB
:103B100068DE188A1F86E8CF82E090E09C838B8362
:103B200035CF90E080E0CECE82E090E0F20191834C
:103B3000808385EF9FEFC6CE8F929F92AF92BF9208
:103B4000CF92DF92EF92FF920F931F93CF93DF9369
:103B5000EA018C01060F171FF8018181833098F06C
:103B600082E090E09983888386EF9FEFDF91CF9189
:103B70001F910F91FF90EF90DF90CF90BF90AF908B
:103B80009F908F90089580911C0490911D04892B23
:103B900061F081E090E020911E0430911F04232BFE
:103BA00011F490E080E0892B39F482E090E0998371
:103BB00088838EEF9FEFDACF42DE882309F4E0C0DE
:103BC000F8018181813009F496C0E8F0823099F4DF
:103BD00020911E0430911F04E0911C04F0911D04FB
:103BE00090E080E041E050E02817390709F0BEC0BE
:103BF0003CDA811117C0789481E090E09983888342
:103C000090E080E0B3CF20911E0430911F04E0913A
:103C10001C04F0911D0490E080E041E050E0281782
:103C2000390741F481E090E00E94B01480E40E94E2
:103C3000BE14E1CF63817481672B11F054834383F9
:103C400001967396ECCFE0911C04F0911D04E00FF7
:103C5000F11F2381348122303105D9F42189328941
:103C60002F3F3F4FB1F42581368140919201509111
:103C700093012417350761F5AF014F5E5F4F6091E7
:103C800096017091970180919401909195010E9405
:103C90003328EFEFCE1ADE0AEE0AFE0A0D5E1F4F42
:103CA00040911E0450911F0470E060E0C416D506D8
:103CB000E606F70644F5009731F27894892B09F46B
:103CC0009BCF82E090E0998388838DEF9FEF4ECF6A
:103CD000C114D104E104F104E1F622303105C8F643
:103CE000CF017FDDE0911C04F0911D04E00FF11F76
:103CF000108A1786CECF10E000E090E080E0C12C63
:103D0000D12C7601CDCF0097C1F610E000E0812CD8
:103D1000912C540183E0E82EF12C1AC0E0911C0490
:103D2000F0911D04E00FF11F83819481029749F403
:103D3000F482E38282E090E00E94B01480E40E946A
:103D4000B814FFEF8F1A9F0AAF0ABF0A0D5E1F4F0C
:103D500080911E0490911F04B0E0A0E0881699069F
:103D6000AA06BB06DCF290E080E0A7CF63817481F5
:103D70006230710511F4548343830196739634CFF6
:103D800082E090E09983888385EF9FEFEFCE0097E4
:103D9000B9F48FEFFB01808320919C0130919D014C
:103DA00043E1429FC001439F900D1124E0911C0408
:103DB000F0911D04E80FF91F8285FB0181830895AE
:103DC0000C94691488E090E0FA019183808390E07C
:103DD00080E0089510921B0410921A04ECE1F4E0C4
:103DE00086E0DF011D928A95E9F784E79AE19093D6
:103DF000190480931804089580911804909119046F
:103E000008952F923F924F925F926F927F928F927E
:103E10009F92AF92BF92CF92DF92EF92FF920F9359
:103E20001F93CF93DF93CDB7DEB72F970FB6F894DC
:103E3000DEBF0FBECDBFF894E0911A04F0911B04D1
:103E40003196F0931B04E0931A04789440901C047C
:103E500050901D044114510409F40CC2E0911E0459
:103E6000F0911F04EF2B09F405C22D8749875A876B
:103E70006B877C8798878F831201B12CA12C10E06F
:103E800000E080911E0490911F04A816B90618F452
:103E90000115110529F1F89480911A0490911B04E1
:103EA000019790931B0480931A047894C8012F966D
:103EB0000FB6F894DEBF0FBECDBFDF91CF911F913B
:103EC0000F91FF90EF90DF90CF90BF90AF909F90B9
:103ED0008F907F906F905F904F903F902F900895BC
:103EE0007101E418F508D10117968C91179781FD9F
:103EF00054C013968D919C911497039709F04DC06F
:103F000015968D919C91EF81F8858E179F0709F08A
:103F100044C0B50190E080E07ED48A8320911C04E7
:103F200030911D043D832C833D85332309F44CC01F
:103F30004C815D81452B09F49AC180911E049091BA
:103F40001F04A816B90608F092C1C501D8D8882365
:103F5000E9F06C817D816E0D7F1D7D836C83DB01BB
:103F60001F968D919C91892B89F0D12CC12CF12C1D
:103F7000E12CAC81BD8112968C9112978E151F0495
:103F800009F094F450961C921E921F972A812223C6
:103F900021F0B50190E080E040D43FEFA31AB30ACE
:103FA00043E1240E311C6DCFAC81BD81ED91FC91BC
:103FB000EC0DFD1D858196810BD7BFEFEB1AFB0A37
:103FC000EDE0CE0ED11CD5CFEC81FD81309709F408
:103FD0004EC180911E0490911F04A816B90608F0E6
:103FE00046C1EE0DFF1DFF87EE87C50188D88B8384
:103FF000882339F1AE85BF851F968D919C9150978E
:10400000019621E01D964D915C918417950709F06A
:1040100020E02E831982712C10E000E0AE85BF8570
:1040200012968C91781608F45DC0EE85FF85878521
:1040300090890196658576850E946D35908B87877E
:10404000A5CFB1E0BE83E6CF992493946BC087D609
:10405000F6019683858382C0D601ED90FC90B7E08F
:104060006B9EE00CF11C1124F70163817481808147
:104070008F3F61F121E030E002C0220F331F8A95AB
:10408000E2F7C901092E000CAA0BBB0BFB01408112
:1040900051816281738184239523A623B72321E074
:1040A000892B8A2B8B2B09F420E0D4012C93D70188
:1040B00011968C91F60123853485820F932F911DE3
:1040C000880E991E1486138663949BC0418150E02C
:1040D000C4010E94FE35EBCF998206EF1FEFC5C0E9
:1040E0001982C3C0F981F111A0CFEDE07E9E70016D
:1040F0001124AE85BF85CD90DC90CE0CDF1C13D48F
:104100009D838C83BB81BB2309F49ECF81E0EE8528
:10411000FF8527853089232B09F080E0982E88239E
:1041200009F458C0672D8E859F850DD8D601189645
:104130009C938E93179761E070E0BED4EE85FF8567
:10414000218932892F3F320709F481CFBC01C9018F
:10415000CBD7D60116969C938E931597D6011596BC
:104160008D919C911697009709F4B6CFEC81FD8153
:104170008E0F9F1F1A969C938E931997AE85BF85BD
:10418000ED91FC911197EE0EFF1EF701218532850E
:10419000148613861A968C91870DD9018D93711010
:1041A00016C0EE85FF85878184FF11C049855A8539
:1041B0006B857C85F9014183528363837483F701A6
:1041C000838594850496A80FB91F14861386F7017A
:1041D000B287A187D60115968D919C911697892B50
:1041E00009F443C0EE85FF852581368180919201D7
:1041F000909193012817390779F019968D909C902A
:10420000612CD60112968C911297681608F424CF6F
:104210001A969C928E921997BE81BB2309F460CFA7
:1042200061E070E0F6018781908546D4D60117964B
:10423000ED90FC90189715964D915C91E1E0F0E0BF
:10424000BA81BB2311F0F0E0E0E00C811D819C01FC
:10425000B501882799278E1B9F0B68D38C01892B6A
:1042600021F0F60185819681B3D57394D7CE0FEFF7
:104270001FEF8CCE10E000E00ECE2F923F924F92B7
:104280005F926F927F928F929F92AF92BF92CF92E6
:10429000DF92EF92FF920F931F93CF93DF93809162
:1042A0001C0490911D0410E000E0892BA9F0C7DAEE
:1042B0000AEF1FEF882381F020901E0430901F0426
:1042C000C0911C04D0911D04D12CC12C10E000E041
:1042D0002C143D04A9F47894C801DF91CF911F916B
:1042E0000F91FF90EF90DF90CF90BF90AF909F9095
:1042F0008F907F906F905F904F903F902F90089598
:10430000C6010E947F18882309F18B819C81039745
:10431000E9F48F859889892BC9F0B60190E080E097
:104320007AD221E030E0882311F030E020E044240C
:104330005524421A530AB12CA12C912C812C8A812C
:104340008815190409F038F4188A1F864FEFC41A2B
:10435000D40A6396BDCFE881F981EA0DFB1D858102
:104360009681892BA1F161E070E087819085A4D3CB
:104370003C01D9D28C01E881F981EA0DFB1D8185D0
:10438000928525813681200F311FAC01421B530BD2
:104390009A0147815085421B530B70E060E00E94F8
:1043A0000736E881F981EA0DFB1DE780F08445813D
:1043B00056819301B601C201B9D28C01892B39F023
:1043C000E881F981EA0DFB1D8581968101D55FEFBA
:1043D000851A950A8DE0A80EB11CB1CF30CA789429
:1043E00008952F923F924F925F926F927F929F9289
:1043F000AF92BF92CF92DF92EF92FF920F931F93F3
:10440000CF93DF9300D000D000D0CDB7DEB70091BE
:104410001C0410911D04992493940115110509F4AD
:104420003EC0A0901E04B0901F0409DA982E882385
:10443000B1F110921D0410921C0410921F041092EE
:104440001E0410922004109221048FEF9FEFDC01D4
:1044500080939C0190939D01A0939E01B0939F0136
:1044600078947AD31E830D83C12CD12C7601C5019B
:10447000B0E0A0E089839A83AB83BC8322242A9492
:10448000322C89819A81AB81BC81C816D906EA0693
:10449000FB06F4F0C8019CD480E40E94BE14892D70
:1044A00026960FB6F894DEBF0FBECDBFDF91CF9139
:1044B0001F910F91FF90EF90DF90CF90BF90AF9042
:1044C0009F907F906F905F904F903F902F900895B6
:1044D000AD81BE8115968D919C9116972091920188
:1044E0003091930182179307D1F451968D919C914D
:1044F000E9D5ED81FE8180819181B12CA12C412CE7
:10450000512C3201892B89F5BFEFCB1ADB0AEB0A5C
:10451000FB0AED81FE817396FE83ED83B2CFC11459
:10452000D104E104F10429F7029718F7ED81FE8127
:10453000818992898F3F980709F024D5AD81BE818A
:1045400052963C922E925197D4CF8A0D9B1DDC013E
:104550008D919C91009709F03BD4BFEF4B1A5B0AF9
:104560006B0A7B0AEDE0AE0EB11CAD81BE818D9170
:104570009C91119712964C9150E070E060E04416C7
:104580005506660677060CF323D4BECFCF93DF9390
:10459000EA0127DF811109C082E090E099838883D6
:1045A00085EF9FEFDF91CF91089581E090E00E9429
:1045B000B01481E090E09983888390E080E0F2CFAE
:1045C00010DF1092190410921804089542E050E090
:1045D00061E372E00C94CE14FF920F931F93CF937C
:1045E000DF938A01EC01C60FD71FF980B4D2089778
:1045F000F816190671F068F082E090E0F8019183F6
:1046000080838EEF9FEFDF91CF911F910F91FF90ED
:1046100008956C817D818E819F814B810E946517F9
:10462000811108C082E090E0F8019183808384EFDB
:104630009FEFE9CFF9800E9460174F2D50E0BE0137
:10464000685F7F4F0E94FE3589810E94CF1781E00D
:1046500090E0F8019183808390E080E0D4CFDF92F6
:10466000EF92FF920F931F93CF93DF938A01EC0198
:10467000C60FD71F0E9460177C01D9806CD2DD2045
:1046800059F0029721E030E0D816190619F010F021
:1046900030E020E0232B79F482E090E0F801918370
:1046A00080838EEF9FEFDF91CF911F910F91FF904D
:1046B000EF90DF900895EF2841F482E090E0F80158
:1046C0009183808384EF9FEFEECFF9800E94601783
:1046D0004F2D50E0BE016E5F7F4F0E94FE358981F5
:1046E0000E94CF1781E090E0F8019183808390E0F1
:1046F00080E0D9CF86EE92E2909323048093220447
:104700000895809122049091230408950895FC0156
:1047100011821082938382830895DB011D921C9283
:10472000DC011296ED91FC911397718360831396CF
:104730007C936E9312970895FC0180819181DB0137
:104740008D939C93A081B181109741F08D919C91A4
:1047500091838083892B11F4F383E2830895FC0114
:1047600080819181DB018D939C93892B11F473835C
:104770006283718360830895FC01118210829383A8
:1047800082830895CF93DF9300D0CDB7DEB71A822E
:104790001982F894BE016F5F7F4F89E294E0CCDF0D
:1047A00089819A81009709F013D389819A81892B95
:1047B00089F7BE016F5F7F4F8DE294E0BDDF898195
:1047C0009A81009709F004D389819A81892B89F70E
:1047D00078940F900F90DF91CF910895CF93DF934E
:1047E00000D0CDB7DEB71A821982F894BE016F5F90
:1047F0007F4F85E294E0A0DF89819A81009709F0DC
:10480000E7D289819A81892B89F778940F900F904C
:10481000DF91CF91089581E0089590E080E00895C0
:10482000EF92FF920F931F93CF93DF9300D0CDB7FA
:10483000DEB71A8219828091240407EF1FEF8823C4
:10484000A1F1F894BE016F5F7F4F8DE294E074DFB9
:10485000789489819A81EE24E394F12C892B51F488
:10486000F894BE016F5F7F4F89E294E065DF789432
:10487000F12CE12C89819A810EEF1FEF0097A9F0AE
:10488000FC014281538164E070E072D68C01892B77
:1048900061F0F89469817A81C701880F991F880FA8
:1048A000991F875D9B4F5BDF7894C8010F900F9035
:1048B000DF91CF911F910F91FF90EF9008950F938B
:1048C0001F93CF93DF9300D000D0CDB7DEB71C820B
:1048D0001B821A8219828091240407EF1FEF88231C
:1048E000C1F0AE014D5F5F4F64E070E0CE01019614
:1048F000B2D68C01892B69F4E981FA818B819C8184
:1049000093838283F89469817A8185E294E005DF5C
:104910007894C8010F900F900F900F90DF91CF9176
:104920001F910F910895B7D7049608958F929F9283
:10493000AF92BF92CF92DF92EF92FF920F931F93AD
:10494000CF93DF9300D0CDB7DEB71A821982BC01B6
:104950006F5F7F4F6330710598F0AA24AA94BA2C38
:10496000C5010F900F90DF91CF911F910F91FF9094
:10497000EF90DF90CF90BF90AF909F908F90089571
:104980004115510551F3480159018A016C01CBDFF2
:104990008815990511F7E114F104F9F28E0D9F1DA8
:1049A000A816B906D0F2809124048823F1F0F89477
:1049B000B501645071099701AE014F5F5F4FC801A7
:1049C0000496DED65C01892B71F489819A81F80105
:1049D00093838283C601880F991F880F991FB8019E
:1049E000875D9B4F9ADE7894BBCF87EFA82EBB24C0
:1049F000BA94B6CFAF92BF92CF92DF92EF92FF926E
:104A00000F931F93CF93DF9300D0CDB7DEB71A82F9
:104A10001982892B09F047C06115710509F443C05B
:104A20004115510509F43FC02115310509F43BC07A
:104A300001151105C1F1809124048823B9F1790190
:104A40006A015B01F894BE016F5F7F4F85E294E0DD
:104A500073DE789489819A81009759F1DC0112966E
:104A60006D917C91A8010496A4D68C01E981FA810C
:104A7000D501ED93FC93828193810496F601918395
:104A8000808351DFD7018D939C93C8010F900F90C5
:104A9000DF91CF911F910F91FF90EF90DF90CF901A
:104AA000BF90AF9008950FEF1FEFEFCF07EF1FEF0D
:104AB000ECCF0EEF1FEFE9CFCF93DF93EC01672B25
:104AC00071F4F2D68C179D0760F0E5D62496C80FD6
:104AD000D91FE4D68C0F9D1FDF91CF910895E1D6A9
:104AE000F1CF90E080E0F8CF0F931F93CF93DF9347
:104AF0002091240421112BC08B01EC0189E294E068
:104B000006DE8DE294E003DE85E294E000DE97D0DD
:104B10000097C1F4C9D670E060E0CEDF40EA51E012
:104B200062E070E081D1009769F48091A0019091DA
:104B3000A101CCD6B801CE0101D5009719F421E02E
:104B400020932404DF91CF911F910F91089584EF5A
:104B50009FEFF8CFA6C6A8C6CF93DF93A8D6EC01E7
:104B6000892B11F40FDE3ADECE01DF91CF9108954B
:104B7000CF93DF939CD6EC01892B09F403DECE01A1
:104B8000DF91CF9108958091A0019091A1010895A6
:104B9000CF93DF9380912404D0E0C0E08823D1F04C
:104BA0009AD6EC01892BB1F4EDDD18DE8091A001DD
:104BB0009091A101E7D1E8D2EC01892B59F489E267
:104BC00094E0DADD8DE294E0D7DD85E294E0D4DD97
:104BD00010922404CE01DF91CF910895EF92FF92BD
:104BE0000F931F93CF93DF93EC017A018B010F5F3B
:104BF0001F4F0E9DA0010F9D500D1E9D500D1124A5
:104C000070E060E00E94073690E080E0F0E0E0E0D5
:104C10002FEFE816F90639F4DF91CF911F910F912C
:104C2000FF90EF9008951A8219822883309711F02F
:104C3000D283C1830196FE01C00FD11FEACFCF926C
:104C4000DF92EF92FF920F931F93CF93DF930DE9C3
:104C500015E00C7F43E050E062EA71E088EA91E001
:104C60001AD482EAE82E81E0F82E98EAC92E91E063
:104C7000D92EC4E4D6E0D7014D915D917D01F601B6
:104C8000619171916F01198308835D834C835B830C
:104C90004A837F836E839B012F5F3F4F249FC00118
:104CA000259F900D349F900D1124998788870115B9
:104CB000110511F0C80192DF88859985080F191F29
:104CC0002A96F8EAEF16F1E0FF06A9F6E3E3F4E02E
:104CD00087E691E0DF019C011D9221503040E1F711
:104CE0001092320410923104109263061092620600
:104CF000109267061092660610926506109264067E
:104D0000109269061092680610926B0610926A065D
:104D100010926D0610926C06109271061092700639
:104D200010926F0610926E06109273061092720621
:104D30001092750610927406109241061092400669
:104D4000109243061092420690E080E0DF91CF91EE
:104D50001F910F91FF90EF90DF90CF9008950097F3
:104D6000F1F0F894A8EAB1E0E4E4F6E030E020E005
:104D70004D915D9148175907A8F042815381411523
:104D8000510581F08AE0829FF001839FF00D11248C
:104D9000EC5BF94F80819181009759F4789490E011
:104DA00080E008952F5F3F4F3A962330310501F799
:104DB000F5CFDC0111966D917C9171836083415038
:104DC000510953834283FC012193CF0178940895C4
:104DD000009749F1DC018E91853041F4E091420663
:104DE000F09143063097F9F0CD0109948530D8F45D
:104DF000282F30E0F8948FEF8C938AE0829FF001A7
:104E0000839FF00D1124EC5BF94F80819181129604
:104E10009C938E931197B183A08382819381019695
:104E20009383828378940895CF92DF92EF92FF92DA
:104E30000F931F93CF93DF939C0186E394E08C7FC5
:104E40004115510509F49BC02115310509F497C09E
:104E50006115710509F493C07A01AB01B9016D5F69
:104E60007F4F6C7F9B012F5F3F4F249F8001259FC9
:104E7000100D349F100D1124F8942091620630918A
:104E80006306232B59F420916A0630916B06211595
:104E9000310569F12017310708F058C020916C06E0
:104EA00030916D06232B91F420916A0630916B06A8
:104EB000820F931F209174063091750621153105DC
:104EC00009F441C02017310708F056C07894CFEF9D
:104ED000DFEF86EF9FEFF701D183C083DF91CF91A2
:104EE0001F910F91FF90EF90DF90CF900895C3E056
:104EF000D0E0C0903104D090320424E631E02C1987
:104F00003D092017310710F32AE02C9FF0012D9F57
:104F1000F00D1124EC5BF94F91838083558344831A
:104F2000538342837783668311870087009709F054
:104F300055DE0C0D1D1D109332040093310478943E
:104F400090E080E0C8CFC4E0D0E0D3CFC3E0D0E0B1
:104F50002AE02C9FF0012D9FF00D1124EC5BF94FFE
:104F6000918380835583448353834283778366830D
:104F7000009729F333DEE3CFC4E0D0E0E9CF8FEF31
:104F80009FEFACCF9C010397029708F069C0F8949B
:104F900084E09AE0482F50E0241735070CF44DC008
:104FA00091E08AE0829FF001839FF00D1124EC5B79
:104FB000F94F118210821582148213821282178295
:104FC00016829923B1F18091620690916306892B34
:104FD000A9F420916A0630916B062115310571F014
:104FE0008091310490913204821B930B9093320490
:104FF0008093310410926B0610926A0680916C06C1
:1050000090916D06892BA9F4209174063091750654
:105010002115310571F08091310490913204821B89
:10502000930B909332048093310410927506109282
:105030007406789490E080E00895949FF001959F25
:10504000F00D1124EC5BF94F40815181452B31F477
:1050500040855185452B11F481509CCF90E0A1CF24
:105060008FEF9FEF08954115510549F1009739F1F0
:105070006115710521F1F8942091400630914106A7
:10508000232BB9F42091420630914306232B89F457
:1050900090934106809340067093430660934206C6
:1050A000789425E030E090E080E0FA0131832083BD
:1050B000089578942FEF3FEF86EF9FEFF6CF8FEFB5
:1050C0009FEF0895059769F4F894109241061092A5
:1050D00040061092430610924206789490E080E0D9
:1050E00008958FEF9FEF08956115710519F4F0E0B1
:1050F000E0E011C08530910581F4E0914006F09127
:1051000041063097A1F3CB0101960995009779F3F9
:10511000FC0185E08193CF0108959C012350310962
:105120002230310520F72AE0289FD001299FB00DB9
:105130001124AC5BB94F2D913C911197232BB9F2FF
:1051400016962D913C9117972617370780F2F89401
:1051500012962D913C9113972115310529F0ED916F
:10516000FC911197309711F47894C1CF418152810D
:1051700011965C934E932150310913963C932E93D4
:10518000129781937894C7CFEAE9F5E086EADF01C8
:105190001D928A95E9F7E3E3F4E087E691E0DF0109
:1051A0009C011D9221503040E1F710923204109280
:1051B0003104E4E4F6E082E3DF011D928A95E9F729
:1051C000E0E4F6E084E0DF011D928A95E9F790E0E3
:1051D00080E00895CF93DF93C091AE01D091AF01ED
:1051E000CF3FDC0759F409D49093AF018093AE010F
:1051F00097FF09C0D093AF01C093AE0184EF9FEF3A
:10520000DF91CF91089590E080E0FACF8230910550
:1052100028F48093760690E080E008958FEF9FEF6A
:1052200008954F925F926F927F92AF92BF92CF920A
:10523000DF92EF92FF920F931F93CF93DF9300D0F3
:10524000CDB7DEB71A821982009709F479C06115CB
:10525000710509F475C02091AE013091AF0107EFDF
:105260001FEF2F3F3F4F09F445C06B015C01412CFC
:10527000512C3201F12CE12C10E000E09E012F5F57
:105280003F4FA6014E195F09B5016E0D7F1D80913C
:10529000AE019091AF0110D4892B09F04BC08981E8
:1052A0009A81009741F4E114F10429F420917606E3
:1052B000222309F442C0E80EF91EEC14FD04D0F4D8
:1052C00080E8481684E858068EE16806710420F5E7
:1052D00060E070E0CB010E9418322AE0420E511CBF
:1052E000611C711C0A3F4FEF140721F0043F8FEF40
:1052F0001807A1F4C8010F900F90DF91CF911F9173
:105300000F91FF90EF90DF90CF90BF90AF907F9084
:105310006F905F904F90089501EF1FEF81E090E054
:10532000013F2FEF120711F090E080E0892B09F484
:10533000A5CFE0CF04EF1FEFDDCF0AEF1FEFDACFED
:105340000FEF1FEFD7CF4F925F926F927F92AF9286
:10535000BF92CF92DF92EF92FF920F931F93CF9362
:10536000DF9300D0CDB7DEB71A821982009709F417
:1053700079C06115710509F475C02091AE013091B5
:10538000AF0107EF1FEF2F3F3F4F09F445C06B01FF
:105390005C01412C512C3201F12CE12C10E000E099
:1053A0009E012F5F3F4FA6014E195F09B5016E0D9B
:1053B0007F1D8091AE019091AF0134D3892B09F00C
:1053C0004BC089819A81009741F4E114F10429F4DA
:1053D00020917606222309F442C0E80EF91EEC144F
:1053E000FD04D0F480E4481682E458068FE0680695
:1053F000710420F560E070E0CB010E9418322AE0D1
:10540000420E511C611C711C0E3F4FEF140721F01E
:10541000043F8FEF1807A1F4C8010F900F90DF91A0
:10542000CF911F910F91FF90EF90DF90CF90BF90A1
:10543000AF907F906F905F904F90089502EF1FEFB5
:1054400081E090E0023F2FEF120711F090E080E042
:10545000892B09F4A5CFE0CF04EF1FEFDDCF0EEFCE
:105460001FEFDACF0FEF1FEFD7CF8091AE019091F2
:10547000AF018F3F980749F0B8D2892B49F48FEFDD
:105480009FEF9093AF018093AE0190E080E008958C
:1054900084EF9FEF0895CF92DF92EF92FF920F93E8
:1054A0001F93CF93DF9321E04115510509F020E0D0
:1054B0004150510921112CC0DC01FB01D12CC12C20
:1054C00021E022C03FEFC31AD30A7D010D911D9147
:1054D000E701EA80FB80E016F106A8F42081318123
:1054E000E280F380F182E08233832283ED90FC90AE
:1054F00011979D0122503109E901F982E882119644
:105500001C930E9320E03296C416D506D8F2D2CF63
:10551000DF91CF911F910F91FF90EF90DF90CF908F
:105520000895FC01680F791F90E080E0E617F70707
:1055300009F408952191820F911DF8CF20917706EB
:10554000211113C047DE009791F410927D0610924E
:105550007C0610927B0610927A06109279061092C1
:10556000780621E020937706089584EF9FEF089551
:10557000AF92BF92CF92DF92EF92FF920F931F9361
:10558000CF93DF93009709F460C04630510508F4CB
:105590005CC020917706C7EFDFEF222309F449C0F2
:1055A0008C01060F171FF801C080D180C114D104EF
:1055B00009F44EC096012A5F3F4F4217530708F483
:1055C00047C07C0180917C0690917D069383828305
:1055D000B6016C5F7F4F5801A60EB71EC801A1DF50
:1055E000F5019183808364E070E0C8011ADEEC016C
:1055F000892BF9F481E090E009DEB601C801049638
:1056000010DEEC01892B91F462E070E0C50109DE47
:10561000EC01892B59F4C701DBDB80917C0690916A
:105620007D06019690937D0680937C0690E080E055
:10563000EDDDCE01DF91CF911F910F91FF90EF90A3
:10564000DF90CF90BF90AF900895CFEFDFEFF1CF15
:10565000C9EFDFEFEECF6F927F928F929F92AF9262
:10566000BF92CF92DF92EF92FF920F931F93CF934F
:10567000DF9300D000D0CDB7DEB7009709F47AC031
:105680004115510509F476C02091770607EF1FEF09
:10569000222309F44DC03A017B015C0164E070E013
:1056A000CE01019650DE8C01892B09F041C00981A1
:1056B0001A810115110509F45AC0480186E0880EC7
:1056C000911CB701680D791D8091B0019091B101D5
:1056D0000BDD6C01009709F450C0A70170E060E099
:1056E0000E94073689819A81AB81BC81EC0CFD1C3C
:1056F000F70181939193A193B1937F0181E090E0B1
:1057000085DDB801C7011FDE892B31F562E070E04D
:10571000C701800F911F17DE8C01892BE9F490E0FF
:1057200080E074DDF501D182C082F3019182808234
:10573000C8010F900F900F900F90DF91CF911F91A4
:105740000F91FF90EF90DF90CF90BF90AF909F9020
:105750008F907F906F90089590E080E057DDF50185
:1057600011821082F30111821082C60131DB09EF30
:105770001FEFDECF0FEF1FEFDBCF06EF1FEFD8CF0E
:105780000097A1F04115510589F02115310571F0FF
:10579000F90136966E177F0748F0DC012D933C9394
:1057A000DA01ED93FC9390E080E008958FEF9FEF96
:1057B0000895AF92BF92CF92DF92EF92FF920F9334
:1057C0001F93CF93DF93009709F45FC041155105F4
:1057D00009F45BC06530710508F457C02091770665
:1057E000C7EFDFEF222391F1DC01CD90DC90119720
:1057F0001296ED91FC9196012A5F3F4FC9EFDFEFC2
:105800002617370719F5C0917806D09179062097A9
:1058100049F521E030E030937906209378067A014B
:105820008C01F0937B06E0937A065601B4E0AB0E50
:10583000B11CB50176DE0A0D1B1DF80120813181F6
:105840008217930729F5D701CD92DC92CE01DF9123
:10585000CF911F910F91FF90EF90DF90CF90BF906D
:10586000AF90089520917A0630917B062F5F3F4FCD
:10587000CCEFDFEFE217F30790F2CBEFDFEF2E175D
:105880003F0768F2D0E0C0E0CACFCFEFDFEFDECF56
:10589000C3EFDFEFDBCF84E090E0089582E090E09B
:1058A00008958CEF9FEF089580E290E008951092A4
:1058B0007D0610927C0610927B0610927A0610925A
:1058C00079061092780690E080E008959093B101F7
:1058D0008093B001089580917706882391F0C5DD0B
:1058E000009789F410927D0610927C0610927B0638
:1058F00010927A0610927906109278061092770626
:10590000089590E080E00895009749F061157105D1
:1059100031F0FC0111821082FB0111821082089586
:10592000F3CF26E030E040E855E260E070E090E040
:1059300080E000C0892B19F48BE896E0BCC708957D
:105940001F920F920FB60F9211242F933F934F93F4
:105950005F936F937F938F939F93AF93BF93EF93D7
:10596000FF938FE89DEF9093850080938400B7D0DC
:10597000FF91EF91BF91AF919F918F917F916F9127
:105980005F914F913F912F910F900FBE0F901F90FD
:1059900018958FE89DEF9093850080938400AFE683
:1059A000B0E08C918E7F8C93E0E8F0E080818C7F7A
:1059B0008083E1E8F0E08081877E8083808184605D
:1059C000808380818C7F80838C9181608C9308950B
:1059D000EFE6F0E0808190819E7F90838170089552
:1059E00081E0089510927E06089568EE73E080E0ED
:1059F00090E01ED590E080E0089526E030E040E0A1
:105A000052EC61E070E090E080E094DF8BE896E09B
:105A100088D6892B21F08BE896E09DD6F7CF90E0D1
:105A200080E00895CF92DF92EF92FF920F931F9341
:105A3000CF93DF936B017A01E901198218828BE819
:105A400096E06FD6892B69F18601CC24C39482E05D
:105A5000D82E80917E06811110C08BE896E07BD60F
:105A60000297B9F7C0927E06F801D1928F01888122
:105A70009981019699838883ECCF888199818E15CD
:105A80009F0578F48BE896E066D68F3F9807A9F3D8
:105A9000F80181938F018881998101969983888388
:105AA000ECCF90E080E0DF91CF911F910F91FF90BC
:105AB000EF90DF90CF9008950F931F93CF93DF93D4
:105AC000EA0189018BE896E0DAD7F801D183C08337
:105AD00090E080E0DF91CF911F910F910895809128
